{
    "_format": "hh-sol-artifact-1",
    "contractName": "Faucet",
    "sourceName": "contracts/celoFaucet.sol",
    "abi": [
        {
            "inputs": [],
            "stateMutability": "nonpayable",
            "type": "constructor"
        },
        {
            "inputs": [],
            "name": "Faucet_NoBalanceInFaucet",
            "type": "error"
        },
        {
            "inputs": [
                {
                    "internalType": "address",
                    "name": "sender",
                    "type": "address"
                },
                {
                    "internalType": "uint256",
                    "name": "timeLock",
                    "type": "uint256"
                },
                {
                    "internalType": "uint256",
                    "name": "currentTime",
                    "type": "uint256"
                }
            ],
            "name": "Faucet_WalletInTimeLock",
            "type": "error"
        },
        {
            "anonymous": false,
            "inputs": [
                {
                    "indexed": true,
                    "internalType": "address",
                    "name": "sender",
                    "type": "address"
                },
                {
                    "indexed": true,
                    "internalType": "uint256",
                    "name": "value",
                    "type": "uint256"
                }
            ],
            "name": "Deposit",
            "type": "event"
        },
        {
            "anonymous": false,
            "inputs": [
                {
                    "indexed": true,
                    "internalType": "address",
                    "name": "receiver",
                    "type": "address"
                },
                {
                    "indexed": true,
                    "internalType": "uint256",
                    "name": "value",
                    "type": "uint256"
                }
            ],
            "name": "Withdraw",
            "type": "event"
        },
        {
            "inputs": [],
            "name": "deposit",
            "outputs": [],
            "stateMutability": "payable",
            "type": "function"
        },
        {
            "inputs": [],
            "name": "getFaucetCeloBalance",
            "outputs": [
                {
                    "internalType": "uint256",
                    "name": "",
                    "type": "uint256"
                }
            ],
            "stateMutability": "view",
            "type": "function"
        },
        {
            "inputs": [
                {
                    "internalType": "address",
                    "name": "user",
                    "type": "address"
                }
            ],
            "name": "getWalletTimeLockCheck",
            "outputs": [
                {
                    "internalType": "uint256",
                    "name": "",
                    "type": "uint256"
                }
            ],
            "stateMutability": "view",
            "type": "function"
        },
        {
            "inputs": [
                {
                    "internalType": "address",
                    "name": "user",
                    "type": "address"
                }
            ],
            "name": "withdraw",
            "outputs": [],
            "stateMutability": "nonpayable",
            "type": "function"
        },
        {
            "stateMutability": "payable",
            "type": "receive"
        }
    ],
    "bytecode": "0x608060405234801561001057600080fd5b50336000806101000a81548173ffffffffffffffffffffffffffffffffffffffff021916908373ffffffffffffffffffffffffffffffffffffffff1602179055506105a5806100606000396000f3fe6080604052600436106100435760003560e01c806351cff8d914610093578063677b988f146100bc578063c17fa90d146100e7578063d0e30db0146101245761008e565b3661008e57343373ffffffffffffffffffffffffffffffffffffffff167fe1fffcc4923d04b559f4d29a8bfc6cda04eb5b0d3c460751c2402c5c5cc9109c60405160405180910390a3005b600080fd5b34801561009f57600080fd5b506100ba60048036038101906100b59190610465565b61012e565b005b3480156100c857600080fd5b506100d161036b565b6040516100de91906104ab565b60405180910390f35b3480156100f357600080fd5b5061010e60048036038101906101099190610465565b610373565b60405161011b91906104ab565b60405180910390f35b61012c6103bc565b005b6000600160008373ffffffffffffffffffffffffffffffffffffffff1673ffffffffffffffffffffffffffffffffffffffff16815260200190815260200160002054141580156101bc575042600160008373ffffffffffffffffffffffffffffffffffffffff1673ffffffffffffffffffffffffffffffffffffffff16815260200190815260200160002054115b156102415780600160008373ffffffffffffffffffffffffffffffffffffffff1673ffffffffffffffffffffffffffffffffffffffff16815260200190815260200160002054426040517f963214b1000000000000000000000000000000000000000000000000000000008152600401610238939291906104d5565b60405180910390fd5b6000470361027b576040517f032d277f00000000000000000000000000000000000000000000000000000000815260040160405180910390fd5b620151804261028a919061053b565b600160008373ffffffffffffffffffffffffffffffffffffffff1673ffffffffffffffffffffffffffffffffffffffff168152602001908152602001600020819055508073ffffffffffffffffffffffffffffffffffffffff166108fc67016345785d8a00009081150290604051600060405180830381858888f1935050505015801561031b573d6000803e3d6000fd5b5067016345785d8a00008173ffffffffffffffffffffffffffffffffffffffff167f884edad9ce6fa2440d8a54cc123490eb96d2768479d49ff9c7366125a942436460405160405180910390a350565b600047905090565b6000600160008373ffffffffffffffffffffffffffffffffffffffff1673ffffffffffffffffffffffffffffffffffffffff168152602001908152602001600020549050919050565b343373ffffffffffffffffffffffffffffffffffffffff167fe1fffcc4923d04b559f4d29a8bfc6cda04eb5b0d3c460751c2402c5c5cc9109c60405160405180910390a3565b600080fd5b600073ffffffffffffffffffffffffffffffffffffffff82169050919050565b600061043282610407565b9050919050565b61044281610427565b811461044d57600080fd5b50565b60008135905061045f81610439565b92915050565b60006020828403121561047b5761047a610402565b5b600061048984828501610450565b91505092915050565b6000819050919050565b6104a581610492565b82525050565b60006020820190506104c0600083018461049c565b92915050565b6104cf81610427565b82525050565b60006060820190506104ea60008301866104c6565b6104f7602083018561049c565b610504604083018461049c565b949350505050565b7f4e487b7100000000000000000000000000000000000000000000000000000000600052601160045260246000fd5b600061054682610492565b915061055183610492565b92508282019050808211156105695761056861050c565b5b9291505056fea26469706673582212205df796702276e06507977b09c1e3aa243138bf290fba7bad3ab8d3f2b2bbe9b364736f6c63430008110033",
    "linkReferences": {},
    "deployedLinkReferences": {}
}