{
  "address": "0xd04D63cE3055C662B434aAB1dFf83C111a0cE488",
  "abi": [
    {
      "inputs": [],
      "stateMutability": "nonpayable",
      "type": "constructor"
    },
    {
      "inputs": [],
      "name": "Faucet_InsufficientAllowance",
      "type": "error"
    },
    {
      "inputs": [],
      "name": "Faucet_NoBalanceInFaucet",
      "type": "error"
    },
    {
      "inputs": [
        {
          "internalType": "address",
          "name": "sender",
          "type": "address"
        },
        {
          "internalType": "uint256",
          "name": "value",
          "type": "uint256"
        }
      ],
      "name": "Faucet_NotEnoughBalanceInUserWallet",
      "type": "error"
    },
    {
      "inputs": [],
      "name": "Faucet_SomethingWentWrong",
      "type": "error"
    },
    {
      "inputs": [
        {
          "internalType": "address",
          "name": "sender",
          "type": "address"
        },
        {
          "internalType": "uint256",
          "name": "timeLock",
          "type": "uint256"
        },
        {
          "internalType": "uint256",
          "name": "currentTime",
          "type": "uint256"
        }
      ],
      "name": "Faucet_WalletInTimeLock",
      "type": "error"
    },
    {
      "anonymous": false,
      "inputs": [
        {
          "indexed": true,
          "internalType": "address",
          "name": "sender",
          "type": "address"
        },
        {
          "indexed": true,
          "internalType": "uint256",
          "name": "value",
          "type": "uint256"
        }
      ],
      "name": "Deposit",
      "type": "event"
    },
    {
      "anonymous": false,
      "inputs": [
        {
          "indexed": true,
          "internalType": "address",
          "name": "sender",
          "type": "address"
        },
        {
          "indexed": true,
          "internalType": "uint256",
          "name": "amount",
          "type": "uint256"
        }
      ],
      "name": "DepositLink",
      "type": "event"
    },
    {
      "anonymous": false,
      "inputs": [
        {
          "indexed": true,
          "internalType": "address",
          "name": "receiver",
          "type": "address"
        },
        {
          "indexed": true,
          "internalType": "uint256",
          "name": "value",
          "type": "uint256"
        }
      ],
      "name": "Withdraw",
      "type": "event"
    },
    {
      "anonymous": false,
      "inputs": [
        {
          "indexed": true,
          "internalType": "address",
          "name": "receiver",
          "type": "address"
        },
        {
          "indexed": true,
          "internalType": "uint256",
          "name": "value",
          "type": "uint256"
        }
      ],
      "name": "WithdrawLink",
      "type": "event"
    },
    {
      "inputs": [],
      "name": "deposit",
      "outputs": [],
      "stateMutability": "payable",
      "type": "function"
    },
    {
      "inputs": [
        {
          "internalType": "address",
          "name": "sender",
          "type": "address"
        },
        {
          "internalType": "uint256",
          "name": "amount",
          "type": "uint256"
        }
      ],
      "name": "depositLink",
      "outputs": [],
      "stateMutability": "nonpayable",
      "type": "function"
    },
    {
      "inputs": [],
      "name": "getFaucetEthBalance",
      "outputs": [
        {
          "internalType": "uint256",
          "name": "",
          "type": "uint256"
        }
      ],
      "stateMutability": "view",
      "type": "function"
    },
    {
      "inputs": [],
      "name": "getFaucetLinkTokenBalance",
      "outputs": [
        {
          "internalType": "uint256",
          "name": "",
          "type": "uint256"
        }
      ],
      "stateMutability": "view",
      "type": "function"
    },
    {
      "inputs": [
        {
          "internalType": "address",
          "name": "user",
          "type": "address"
        }
      ],
      "name": "getWalletTimeLockCheck",
      "outputs": [
        {
          "internalType": "uint256",
          "name": "",
          "type": "uint256"
        }
      ],
      "stateMutability": "view",
      "type": "function"
    },
    {
      "inputs": [
        {
          "internalType": "address",
          "name": "user",
          "type": "address"
        }
      ],
      "name": "withdraw",
      "outputs": [],
      "stateMutability": "nonpayable",
      "type": "function"
    },
    {
      "inputs": [
        {
          "internalType": "address",
          "name": "user",
          "type": "address"
        }
      ],
      "name": "withdrawLink",
      "outputs": [],
      "stateMutability": "nonpayable",
      "type": "function"
    },
    {
      "stateMutability": "payable",
      "type": "receive"
    }
  ],
  "transactionHash": "0x559dcfeadade9d4c970c0f78b79ce5162001eeeba5f68ed62bf193d522cf5a64",
  "args": [],
  "numDeployments": 1,
  "solcInputHash": "5039dd9b28ae2e347e2260dfbe78123d",
  "bytecode": "0x608060405234801561001057600080fd5b50336000806101000a81548173ffffffffffffffffffffffffffffffffffffffff021916908373ffffffffffffffffffffffffffffffffffffffff160217905550610e84806100606000396000f3fe6080604052600436106100745760003560e01c806390e9ca7f1161004e57806390e9ca7f14610141578063b4ce5e2b1461016a578063c17fa90d14610195578063d0e30db0146101d2576100bf565b80630753482a146100c457806346097bc9146100ef57806351cff8d914610118576100bf565b366100bf57343373ffffffffffffffffffffffffffffffffffffffff167fe1fffcc4923d04b559f4d29a8bfc6cda04eb5b0d3c460751c2402c5c5cc9109c60405160405180910390a3005b600080fd5b3480156100d057600080fd5b506100d96101dc565b6040516100e69190610b43565b60405180910390f35b3480156100fb57600080fd5b5061011660048036038101906101119190610bed565b6101e4565b005b34801561012457600080fd5b5061013f600480360381019061013a9190610c2d565b61046a565b005b34801561014d57600080fd5b5061016860048036038101906101639190610c2d565b6106a7565b005b34801561017657600080fd5b5061017f610a06565b60405161018c9190610b43565b60405180910390f35b3480156101a157600080fd5b506101bc60048036038101906101b79190610c2d565b610a9b565b6040516101c99190610b43565b60405180910390f35b6101da610ae4565b005b600047905090565b600073326c977e6efc84e512bb9c30f76e30c160ed06fb73ffffffffffffffffffffffffffffffffffffffff166370a08231846040518263ffffffff1660e01b81526004016102339190610c69565b602060405180830381865afa158015610250573d6000803e3d6000fd5b505050506040513d601f19601f820116820180604052508101906102749190610c99565b9050818110156102bd5782826040517f115583ba0000000000000000000000000000000000000000000000000000000081526004016102b4929190610cc6565b60405180910390fd5b600073326c977e6efc84e512bb9c30f76e30c160ed06fb73ffffffffffffffffffffffffffffffffffffffff1663dd62ed3e85306040518363ffffffff1660e01b815260040161030e929190610cef565b602060405180830381865afa15801561032b573d6000803e3d6000fd5b505050506040513d601f19601f8201168201806040525081019061034f9190610c99565b90508281111561038b576040517f966bb49200000000000000000000000000000000000000000000000000000000815260040160405180910390fd5b73326c977e6efc84e512bb9c30f76e30c160ed06fb73ffffffffffffffffffffffffffffffffffffffff166323b872dd8530866040518463ffffffff1660e01b81526004016103dc93929190610d18565b6020604051808303816000875af11580156103fb573d6000803e3d6000fd5b505050506040513d601f19601f8201168201806040525081019061041f9190610d87565b50828473ffffffffffffffffffffffffffffffffffffffff167fed86baac945d0a526abda7e1f413a2444eb488e650d87a7283309776836e517460405160405180910390a350505050565b6000600160008373ffffffffffffffffffffffffffffffffffffffff1673ffffffffffffffffffffffffffffffffffffffff16815260200190815260200160002054141580156104f8575042600160008373ffffffffffffffffffffffffffffffffffffffff1673ffffffffffffffffffffffffffffffffffffffff16815260200190815260200160002054115b1561057d5780600160008373ffffffffffffffffffffffffffffffffffffffff1673ffffffffffffffffffffffffffffffffffffffff16815260200190815260200160002054426040517f963214b100000000000000000000000000000000000000000000000000000000815260040161057493929190610db4565b60405180910390fd5b600047036105b7576040517f032d277f00000000000000000000000000000000000000000000000000000000815260040160405180910390fd5b62015180426105c69190610e1a565b600160008373ffffffffffffffffffffffffffffffffffffffff1673ffffffffffffffffffffffffffffffffffffffff168152602001908152602001600020819055508073ffffffffffffffffffffffffffffffffffffffff166108fc67016345785d8a00009081150290604051600060405180830381858888f19350505050158015610657573d6000803e3d6000fd5b5067016345785d8a00008173ffffffffffffffffffffffffffffffffffffffff167f884edad9ce6fa2440d8a54cc123490eb96d2768479d49ff9c7366125a942436460405160405180910390a350565b6000600260008373ffffffffffffffffffffffffffffffffffffffff1673ffffffffffffffffffffffffffffffffffffffff1681526020019081526020016000205414158015610735575042600260008373ffffffffffffffffffffffffffffffffffffffff1673ffffffffffffffffffffffffffffffffffffffff16815260200190815260200160002054115b156107ba5780600260008373ffffffffffffffffffffffffffffffffffffffff1673ffffffffffffffffffffffffffffffffffffffff16815260200190815260200160002054426040517f963214b10000000000000000000000000000000000000000000000000000000081526004016107b193929190610db4565b60405180910390fd5b600073326c977e6efc84e512bb9c30f76e30c160ed06fb73ffffffffffffffffffffffffffffffffffffffff166370a08231306040518263ffffffff1660e01b81526004016108099190610c69565b602060405180830381865afa158015610826573d6000803e3d6000fd5b505050506040513d601f19601f8201168201806040525081019061084a9190610c99565b9050678ac7230489e8000081101561088e576040517f032d277f00000000000000000000000000000000000000000000000000000000815260040160405180910390fd5b620151804261089d9190610e1a565b600260008473ffffffffffffffffffffffffffffffffffffffff1673ffffffffffffffffffffffffffffffffffffffff16815260200190815260200160002081905550600073326c977e6efc84e512bb9c30f76e30c160ed06fb73ffffffffffffffffffffffffffffffffffffffff1663a9059cbb84678ac7230489e800006040518363ffffffff1660e01b8152600401610939929190610cc6565b6020604051808303816000875af1158015610958573d6000803e3d6000fd5b505050506040513d601f19601f8201168201806040525081019061097c9190610d87565b9050806109b5576040517f0537c0dd00000000000000000000000000000000000000000000000000000000815260040160405180910390fd5b678ac7230489e800008373ffffffffffffffffffffffffffffffffffffffff167f12b25b675c326f2373fa9b6e2d394dcfb471baa7c0fe8df426279c2a3d77c4a860405160405180910390a3505050565b600073326c977e6efc84e512bb9c30f76e30c160ed06fb73ffffffffffffffffffffffffffffffffffffffff166370a08231306040518263ffffffff1660e01b8152600401610a559190610c69565b602060405180830381865afa158015610a72573d6000803e3d6000fd5b505050506040513d601f19601f82011682018060405250810190610a969190610c99565b905090565b6000600160008373ffffffffffffffffffffffffffffffffffffffff1673ffffffffffffffffffffffffffffffffffffffff168152602001908152602001600020549050919050565b343373ffffffffffffffffffffffffffffffffffffffff167fe1fffcc4923d04b559f4d29a8bfc6cda04eb5b0d3c460751c2402c5c5cc9109c60405160405180910390a3565b6000819050919050565b610b3d81610b2a565b82525050565b6000602082019050610b586000830184610b34565b92915050565b600080fd5b600073ffffffffffffffffffffffffffffffffffffffff82169050919050565b6000610b8e82610b63565b9050919050565b610b9e81610b83565b8114610ba957600080fd5b50565b600081359050610bbb81610b95565b92915050565b610bca81610b2a565b8114610bd557600080fd5b50565b600081359050610be781610bc1565b92915050565b60008060408385031215610c0457610c03610b5e565b5b6000610c1285828601610bac565b9250506020610c2385828601610bd8565b9150509250929050565b600060208284031215610c4357610c42610b5e565b5b6000610c5184828501610bac565b91505092915050565b610c6381610b83565b82525050565b6000602082019050610c7e6000830184610c5a565b92915050565b600081519050610c9381610bc1565b92915050565b600060208284031215610caf57610cae610b5e565b5b6000610cbd84828501610c84565b91505092915050565b6000604082019050610cdb6000830185610c5a565b610ce86020830184610b34565b9392505050565b6000604082019050610d046000830185610c5a565b610d116020830184610c5a565b9392505050565b6000606082019050610d2d6000830186610c5a565b610d3a6020830185610c5a565b610d476040830184610b34565b949350505050565b60008115159050919050565b610d6481610d4f565b8114610d6f57600080fd5b50565b600081519050610d8181610d5b565b92915050565b600060208284031215610d9d57610d9c610b5e565b5b6000610dab84828501610d72565b91505092915050565b6000606082019050610dc96000830186610c5a565b610dd66020830185610b34565b610de36040830184610b34565b949350505050565b7f4e487b7100000000000000000000000000000000000000000000000000000000600052601160045260246000fd5b6000610e2582610b2a565b9150610e3083610b2a565b9250828201905080821115610e4857610e47610deb565b5b9291505056fea264697066735822122097eabf1d2a1053b223056135171d2327e28079046ed37f60590a7491ab7b99ec64736f6c63430008110033",
  "devdoc": {
    "kind": "dev",
    "methods": {},
    "version": 1
  },
  "userdoc": {
    "kind": "user",
    "methods": {},
    "version": 1
  },
  "storageLayout": {
    "storage": [
      {
        "astId": 102,
        "contract": "contracts/Faucet.sol:Faucet",
        "label": "owner",
        "offset": 0,
        "slot": "0",
        "type": "t_address"
      },
      {
        "astId": 106,
        "contract": "contracts/Faucet.sol:Faucet",
        "label": "s_timeLocksEth",
        "offset": 0,
        "slot": "1",
        "type": "t_mapping(t_address,t_uint256)"
      },
      {
        "astId": 110,
        "contract": "contracts/Faucet.sol:Faucet",
        "label": "s_timeLocksLink",
        "offset": 0,
        "slot": "2",
        "type": "t_mapping(t_address,t_uint256)"
      }
    ],
    "types": {
      "t_address": {
        "encoding": "inplace",
        "label": "address",
        "numberOfBytes": "20"
      },
      "t_mapping(t_address,t_uint256)": {
        "encoding": "mapping",
        "key": "t_address",
        "label": "mapping(address => uint256)",
        "numberOfBytes": "32",
        "value": "t_uint256"
      },
      "t_uint256": {
        "encoding": "inplace",
        "label": "uint256",
        "numberOfBytes": "32"
      }
    }
  }
}